{
  "contractName": "Rating",
  "abi": [
    {
      "constant": true,
      "inputs": [
        {
          "name": "",
          "type": "uint256"
        }
      ],
      "name": "restaurants",
      "outputs": [
        {
          "name": "id",
          "type": "uint256"
        },
        {
          "name": "name",
          "type": "string"
        },
        {
          "name": "ratingCount",
          "type": "uint256"
        },
        {
          "name": "totalFoodStars",
          "type": "uint256"
        },
        {
          "name": "avgFoodRating",
          "type": "uint256"
        },
        {
          "name": "totalServiceStars",
          "type": "uint256"
        },
        {
          "name": "avgServiceRating",
          "type": "uint256"
        },
        {
          "name": "totalEnvironStars",
          "type": "uint256"
        },
        {
          "name": "avgEnvironRating",
          "type": "uint256"
        }
      ],
      "payable": false,
      "stateMutability": "view",
      "type": "function"
    },
    {
      "constant": true,
      "inputs": [],
      "name": "restaurantsCount",
      "outputs": [
        {
          "name": "",
          "type": "uint256"
        }
      ],
      "payable": false,
      "stateMutability": "view",
      "type": "function"
    },
    {
      "inputs": [],
      "payable": false,
      "stateMutability": "nonpayable",
      "type": "constructor"
    },
    {
      "anonymous": false,
      "inputs": [
        {
          "indexed": true,
          "name": "_restaurantId",
          "type": "uint256"
        }
      ],
      "name": "ratedEvent",
      "type": "event"
    },
    {
      "constant": false,
      "inputs": [
        {
          "name": "_restaurantId",
          "type": "uint256"
        },
        {
          "name": "_food",
          "type": "uint256"
        },
        {
          "name": "_service",
          "type": "uint256"
        },
        {
          "name": "_environ",
          "type": "uint256"
        }
      ],
      "name": "rate",
      "outputs": [],
      "payable": false,
      "stateMutability": "nonpayable",
      "type": "function"
    }
  ],
  "bytecode": "0x608060405234801561001057600080fd5b5061005e6040805190810160405280600881526020017f476f6e67204368610000000000000000000000000000000000000000000000008152506100fd640100000000026401000000009004565b6100ab6040805190810160405280600c81526020017f5068696c7a20436f6666656500000000000000000000000000000000000000008152506100fd640100000000026401000000009004565b6100f86040805190810160405280600e81526020017f53706f6f6e6669736820506f6b650000000000000000000000000000000000008152506100fd640100000000026401000000009004565b610286565b600160008154809291906001019190505550610120604051908101604052806001548152602001828152602001600081526020016000815260200160008152602001600081526020016000815260200160008152602001600081525060008060015481526020019081526020016000206000820151816000015560208201518160010190805190602001906101939291906101e1565b5060408201518160020155606082015181600301556080820151816004015560a0820151816005015560c0820151816006015560e08201518160070155610100820151816008015590505050565b828054600181600116156101000203166002900490600052602060002090601f016020900481019282601f1061022257805160ff1916838001178555610250565b82800160010185558215610250579182015b8281111561024f578251825591602001919060010190610234565b5b50905061025d9190610261565b5090565b61028391905b8082111561027f576000816000905550600101610267565b5090565b90565b6105a6806102956000396000f300608060405260043610610057576000357c0100000000000000000000000000000000000000000000000000000000900463ffffffff1680636ab63e801461005c578063ad5461d8146100a7578063f667e2b314610185575b600080fd5b34801561006857600080fd5b506100a5600480360381019080803590602001909291908035906020019092919080359060200190929190803590602001909291905050506101b0565b005b3480156100b357600080fd5b506100d26004803603810190808035906020019092919050505061048e565b604051808a81526020018060200189815260200188815260200187815260200186815260200185815260200184815260200183815260200182810382528a818151815260200191508051906020019080838360005b83811015610142578082015181840152602081019050610127565b50505050905090810190601f16801561016f5780820380516001836020036101000a031916815260200191505b509a505050505050505050505060405180910390f35b34801561019157600080fd5b5061019a610574565b6040518082815260200191505060405180910390f35b600080851180156101c357506001548511155b15156101ce57600080fd5b6000808681526020019081526020016000206002016000815480929190600101919050555060008086815260200190815260200160002060020154905083600080878152602001908152602001600020600301540160008087815260200190815260200160002060030181905550806000808781526020019081526020016000206003015481151561025c57fe5b046000808781526020019081526020016000206004018190555060028181151561028257fe5b0481600080888152602001908152602001600020600301548115156102a357fe5b0611156102d057600080868152602001908152602001600020600401600081548092919060010191905055505b82600080878152602001908152602001600020600501540160008087815260200190815260200160002060050181905550806000808781526020019081526020016000206005015481151561032157fe5b046000808781526020019081526020016000206006018190555060028181151561034757fe5b04816000808881526020019081526020016000206005015481151561036857fe5b06111561039557600080868152602001908152602001600020600601600081548092919060010191905055505b8160008087815260200190815260200160002060070154016000808781526020019081526020016000206007018190555080600080878152602001908152602001600020600701548115156103e657fe5b046000808781526020019081526020016000206008018190555060028181151561040c57fe5b04816000808881526020019081526020016000206007015481151561042d57fe5b06111561045a57600080868152602001908152602001600020600801600081548092919060010191905055505b847fd3df2ec539ab34ce8c92b7632305d95f0ccd9ef52ca38388543185062a10256160405160405180910390a25050505050565b6000602052806000526040600020600091509050806000015490806001018054600181600116156101000203166002900480601f0160208091040260200160405190810160405280929190818152602001828054600181600116156101000203166002900480156105405780601f1061051557610100808354040283529160200191610540565b820191906000526020600020905b81548152906001019060200180831161052357829003601f168201915b5050505050908060020154908060030154908060040154908060050154908060060154908060070154908060080154905089565b600154815600a165627a7a723058202f3125f799d6a38dbddd8001fcf5ef2040bb3bfedcd6f6ba731a811ea202eda10029",
  "source": "pragma solidity 0.4.25;\n\ncontract Rating {\n    // Model a Restaurant\n    struct Restaurant {\n        uint id; //0\n        string name; //1\n        uint ratingCount; //2;\n        uint totalFoodStars; //3\n        uint avgFoodRating; //4\n        uint totalServiceStars; //5\n        uint avgServiceRating; //6\n        uint totalEnvironStars; //7\n        uint avgEnvironRating; //8\n    }\n\n    // Store Restaurants\n    mapping(uint => Restaurant) public restaurants;\n\n    // Store restaurant count\n    uint public restaurantsCount;\n\n    // voted event\n    event ratedEvent (\n        uint indexed _restaurantId\n    );\n\n    constructor () public {\n        addRestaurant(\"Gong Cha\");\n        addRestaurant(\"Philz Coffee\");\n        addRestaurant(\"Spoonfish Poke\");\n    }\n\n    //function for adding new restaurant\n    function addRestaurant (string _name) private {\n        restaurantsCount ++;\n        restaurants[restaurantsCount] = Restaurant(restaurantsCount, _name, 0, 0, 0, 0, 0, 0, 0);\n    }\n\n    //function for rating different quality\n    function rate (uint _restaurantId, uint _food, uint _service, uint _environ) public {\n\n        // require a valid candidate\n        require(_restaurantId > 0 && _restaurantId <= restaurantsCount);\n\n        // update candidate vote Count\n        restaurants[_restaurantId].ratingCount ++;\n        uint rateCount = restaurants[_restaurantId].ratingCount;\n\n        // Calculate and update average food rating\n        restaurants[_restaurantId].totalFoodStars = restaurants[_restaurantId].totalFoodStars + _food;\n        restaurants[_restaurantId].avgFoodRating = restaurants[_restaurantId].totalFoodStars / rateCount;\n        if(restaurants[_restaurantId].totalFoodStars % rateCount > rateCount / 2) {\n            restaurants[_restaurantId].avgFoodRating++;\n        }\n\n        // Calculate and update average service rating\n        restaurants[_restaurantId].totalServiceStars = restaurants[_restaurantId].totalServiceStars + _service;\n        restaurants[_restaurantId].avgServiceRating = restaurants[_restaurantId].totalServiceStars / rateCount;\n        if(restaurants[_restaurantId].totalServiceStars % rateCount > rateCount / 2) {\n            restaurants[_restaurantId].avgServiceRating++;\n        }\n\n        // Calculate and update average environment cleanliness rating\n        restaurants[_restaurantId].totalEnvironStars = restaurants[_restaurantId].totalEnvironStars + _environ;\n        restaurants[_restaurantId].avgEnvironRating = restaurants[_restaurantId].totalEnvironStars / rateCount;\n        if(restaurants[_restaurantId].totalEnvironStars % rateCount > rateCount / 2) {\n            restaurants[_restaurantId].avgEnvironRating++;\n        }\n\n        // trigger rated event\n        emit ratedEvent(_restaurantId);\n\n    }\n}\n",
  "sourcePath": "C:\\Users\\denis\\Documents\\GitHub\\CMPE183F21_Gip\\Restaurant Rater\\contracts\\Rating.sol",
  "compiler": {
    "name": "solc",
    "version": "0.4.25+commit.59dbf8f1.Emscripten.clang"
  },
  "schemaVersion": "3.4.3",
  "updatedAt": "2021-11-30T10:14:42.990Z",
  "networkType": "ethereum",
  "devdoc": {
    "methods": {}
  },
  "userdoc": {
    "methods": {}
  }
}